:020000041000EA
:1000000000B5324B212058609868022188439860DF
:10001000D860186158612E4B002199600221596106
:100020000121F02299502B49196001219960352056
:1000300000F044F80222904214D00621196600F024
:1000400034F8196E01211966002018661A6600F04E
:100050002CF8196E196E196E052000F02FF8012189
:100060000842F9D1002199601B49196000215960AB
:100070001A491B48016001219960EB211966A021F2
:10008000196600F012F800219960164914480160C1
:100090000121996001BC002800D000471248134993
:1000A000086003C880F30888084703B5996A0420EC
:1000B0000142FBD001200142F8D103BD02B5186610
:1000C0001866FFF7F2FF186E186E02BD00000240BE
:1000D000000000180000070000035F00212200005C
:1000E000F4000018222000A00001001008ED00E03C
:1000F00000000000000000000000000074B24E7A12
:1001000000200420F7010010C3010010C5010010F9
:10011000C1010010C1010010C1010010C101001097
:10012000C1010010C1010010C1010010C701001081
:10013000C1010010C1010010C9010010CB01001065
:10014000CD010010CD010010CD010010CD01001037
:10015000CD010010CD010010CD010010CD01001027
:10016000CD010010CD010010CD010010CD01001017
:10017000CD010010CD010010CD010010CD01001007
:10018000CD010010CD010010CD010010CD010010F7
:10019000CD010010CD010010CD010010CD010010E7
:1001A000CD010010CD010010CD010010CD010010D7
:1001B000CD010010CD010010CD010010CD010010C7
:1001C00000BE00BE00BE00BE00BE00BEEFF3058054
:1001D000103800BEF2EB88716C0307109003071013
:1001E0003402001090A31AE700201F49086006C8D7
:1001F00081F3088810471D48006800282FD10DA4FE
:100200000ECC002902D000F012F8F9E71849194A7B
:10021000002000E001C19142FCD1174988471749ED
:1002200088471749884700BEFDE701C901C29A42C5
:10023000FBD3704790030710C0000020B41D0020BE
:1002400084200710000004200000042084200710F0
:10025000001004200010042000000000704709482E
:100260000CF0F3FE0047000008ED00E0000000D0B5
:10027000D81D0020D8CE0020D5B40010A50700104E
:1002800097B600105756000005005250DE65F4681E
:1002900084200710060052505422A29DE428031027
:1002A00006005250861C0302F0280310060052502C
:1002B000ABB3605304290310F8B5C046064807499C
:1002C000091A8B10C90FC91810B5491003D0044B77
:1002D000002B00D0984710BDB41D0020B41D002095
:1002E00000000000054B10B5002B03D00449054861
:1002F00000E000BFFFF7E2FF10BDC04600000000B5
:100300000CCC0020580B031080B582B000AF3860D1
:1003100079603A687B6810001900BD4602B080BD64
:1003200080B584B000AFF8603A607B603A687B6863
:10033000002B05DA074B084A08483F210BF0B4F9B7
:10034000F9683A687B680A604B60C046BD4604B0F5
:1003500080BDC046580B0310740B0310AC0B031088
:10036000B0B586B000AF386079603A687B6810003D
:100370001900FFF7C9FF02000B003A617B617B693E
:100380001C0000231D002300FB600B4B5B6ABB605D
:10039000BA68FB689A420AD3074B9A6A3B699A4249
:1003A00003D2BA68FB689A4201D0012300E000231F
:1003B0001800BD4606B0B0BD0040054080B582B013
:1003C00000AF786009F0F0FC02000B0079680800CB
:1003D000FFF7A6FFC0467868BD4602B080BD0000AA
:1003E000B0B588B000AFF8603A607B603A687B686F
:1003F00010001900FFF788FF02000B003A617B61D3
:100400003B6B1C0000231D00FA22920000232000F9
:1004100029000DF06DFA02000B00100019003A6976
:100420007B6912184B41BA61FB61BA69FB69002B09
:1004300004DA01225242074BBA61FB61BA69FB69D7
:10044000F9680800FFF76CFFC046F868BD4608B0C1
:10045000B0BDC046FFFFFF7F80B586B002AF7860B9
:1004600039600823FB181800FFF7A8FF7868BA68FE
:10047000FB6839680091FFF7B3FFC0467868BD4656
:1004800004B080BD80B582B000AF78607B68002288
:100490000121180007F02AFAC046BD4602B080BD0F
:1004A00080B582B000AF7860D0231B065A687B68A5
:1004B000DA401300012213405A1E9341DBB21800A8
:1004C000BD4602B080BD80B582B000AF7860D02359
:1004D0001B067A685A61C046BD4602B080BD80B531
:1004E00082B000AF7860D0231B067A689A61C0465C
:1004F000BD4602B080BD80B584B000AF78600A0010
:10050000FB1C1A7001227B689A401300FB60FB1CE5
:100510001B78002B04D0FB681800FFF7D4FF03E022
:10052000FB681800FFF7DBFFC046BD4604B080BD86
:1005300080B582B000AF7860D0231B067A685A621B
:10054000C046BD4602B080BD80B582B000AF7860C5
:10055000D0231B067A689A62C046BD4602B080BDB1
:1005600080B584B000AF78600A00FB1C1A700122CD
:100570007B689A401300FB60FB1C1B78002B04D0A7
:10058000FB681800FFF7D4FF03E0FB681800FFF7D3
:10059000DBFFC046BD4604B080BD80B582B000AF71
:1005A000786039603B681800BD4602B080BD80B5F8
:1005B00082B000AF78607B685B685A1C7B685A60C9
:1005C000C046BD4602B080BD80B582B000AF786045
:1005D0007B685B685A1E7B685A607B685B685A421E
:1005E0005341DBB2002B19D07B681B6808331B68B2
:1005F0007A68100098477B689B685A1E7B689A60EF
:100600007B689B685A425341DBB2002B06D07B6863
:100610001B680C331B687A6810009847C046BD46BB
:1006200002B080BD80B500AF014B1800BD4680BD53
:10063000E00D031080B584B000AFF860B9607A6057
:10064000FB687A681A60FB68BA685A60FB68180031
:10065000BD4604B080BD80B582B000AF78607B68D5
:1006600000221A607B681800BD4602B080BD000001
:1006700080B582B000AF78607B681B68074A934200
:1006800003D07B681B685A1C00E001227B681A605B
:100690007B681B681800BD4602B080BDFFFF0000EC
:1006A00090B587B002AF78607B681B68FB60FB6821
:1006B0001B781900FB685B781A00FB689B781C00AC
:1006C000FB689B880748009323000DF0BDFDFB6885
:1006D0009A68054B110018000DF0B6FDC046BD46E6
:1006E00005B090BDF80B0310340C031080B582B038
:1006F00000AF78607B680433180000F065FB7B680E
:100700001800BD4602B080BD80B582B000AF7860F1
:100710007B681800FFF7EAFF7B681800BD4602B04F
:1007200080BD80B582B000AF78607B68043318006C
:1007300000F04AFB7B681800BD4602B080BD80B562
:1007400082B000AF78607B681800FFF7EAFF7B6833
:100750001800BD4602B080BD80B582B000AF7860A1
:1007600039603B681A687B681A607B681A1D3B68B1
:1007700004331900100000F0EEFB7B681800BD4642
:1007800002B080BD80B582B000AF786039607B6810
:100790003A6811001800FFF7DFFF7B681800BD46BC
:1007A00002B080BDF0B5824CA54404AF1623B4223C
:1007B0001201BA18136009237E4ABA181360162072
:1007C00007F0E2F901211620FFF7CAFE092007F021
:1007D000DBF900210920FFF7C3FE0920FFF752FED5
:1007E0000DF049FD744B18000DF0D8FB734A744BA3
:1007F000110018000EF01AF803210E2007F040F83F
:1008000003210F2007F03CF86D496E4C3819402346
:10081000009380233C2206F051FE3B190021180072
:1008200006F054F968493819012300930023002287
:1008300006F0E2F86549664D78190023019300231C
:10084000009320231A2206F0A7FB791938190023F8
:100850000193604B00931423142206F050F93819C9
:1008600000230293012301932D23009323230F22BE
:100870000F2106F02EF83819012301933C23009331
:10088000782305223C2105F043FF38190123019309
:100890000523009378233C223C2105F039FF3B19C6
:1008A000180006F0E2FE00234B4ABA18136013E06A
:1008B000322009F0C5F9434C3B19002201211800F0
:1008C00006F002FA3B19180006F0CFFE424ABB18A8
:1008D0001B680133BA1813603F4BFB181B687F2B52
:1008E000E6DD3E49374C38190123009314231422C6
:1008F00006F082F83B19180006F0B7FE384A39496D
:10090000B324A4003B19180003F00AFF364A391932
:1009100088235B00FB18180000F076FA334A34494C
:100920003B19180003F078FF0300324AB9180B6036
:10093000BB181B68012B06D0BB181A682E4B110080
:1009400018000DF081FC2D4B18000DF027FB2C4BEF
:10095000B52424011B19DA192A4B10001900582359
:100960001A000DF0BFF8264B1B19DB1903221A726F
:10097000234B1B19DB19244ADA60B823FA188823A1
:100980005B00FB181100180000F078FA0300194A08
:10099000B9180B60BB181B68002B39D0BB181A683C
:1009A0001A4B110018000DF04FFCC046FDE7C04681
:1009B0009CF4FFFF3C0B00004C0C0310801A060057
:1009C000D0170020FC0A0000540C0310E80D03109F
:1009D000E40A0000FFFF00004C0B00005C0C031059
:1009E000640C0310700C0310307500005B070000EE
:1009F000780C0310380B0000880C0310A40C0310B3
:100A000068F5FFFF880D0310B40C0310C40C03102D
:100A1000CC4B18000DF0C2FACB4B1968CB4B882297
:100A20005200B818022200F03AFA0300C84AB91876
:100A30000B60BB181B68002B06D0BB181A68C54B8F
:100A4000110018000DF000FCC34B18000DF0A6FAC1
:100A5000B023FB18FA22D20011001800FFF7FCFCAB
:100A60000023BE4ABA1813600023BD4ABA181360A7
:100A70000123BC497A1813600423B2221201B8186A
:100A800003600523B84C3819036096239B01B74DCA
:100A900078190360B64BB52636019B19D8193C1955
:100AA000BA1879187B190093230000F010FAB14BA3
:100AB0009B19DB19A822BA181100180000F035FAAA
:100AC000A023FA18AC4C3B1911001800FFF75AFE8E
:100AD00080235B0039198C22B81801220092F12280
:100AE00004F091FB3B191800FFF729FE8023FB1847
:100AF000A24A11001800FFF7AFFC80243B191A68C6
:100B00005B6810001900FFF72BFC031E2CD0162089
:100B1000FFF7C6FC03001A0001235340DBB21900A3
:100B20001620FFF7E8FC39003B191A685B68934808
:100B300000900800FFF754FC3A687B6839190A6096
:100B40004B608C23FB18180004F07AFB030018009C
:100B50000CF0CEFD00228A4B0CF04BFD02000B0086
:100B6000884908000DF070FBB0243B191A685B68D7
:100B700010001900FFF7F4FB031E00D1D7E0380086
:100B80003B191A685B68FA21C9000091FFF728FC3D
:100B90003A687B6839190A604B60882464003B1905
:100BA000180000F0EFF903001A0001235340DBB2F4
:100BB000002B19D0744B18000DF0F0F9B823FA1877
:100BC0003B191100180000F059F90300604AB918E8
:100BD0000B60BB181B68002B06D0BB181A686B4B48
:100BE000110018000DF030FB0023694ABA18136099
:100BF000684BB52109015B18DB1900225A70654B5F
:100C00005B18DB1900229A70624B5B18DB190C220F
:100C1000BA189A60514ABB181B68002B04D0BB1845
:100C20001B68012B3FD07DE04D4ABB181B68013388
:100C3000B9180B60BB181A6857490C243B191800E7
:100C40000CF0AAF93B1918000DF0A8F9514BB52585
:100C50002D015B19DB1900221A703B1918002FF0C7
:100C600045F903005A1C4B4B5B19DB19DA60364B14
:100C700019687023FA1888235B00FB18180000F02D
:100C80008DF90300424AB9180B60BB181A68434B30
:100C9000110018000DF0D8FA304ABB181B68013358
:100CA000BA18136043E02E4ABB181B680133B91809
:100CB0000B60BB181A683A490C243B1918000CF059
:100CC0006BF93B1918000DF069F9324BB5252D0170
:100CD0005B19DB1901221A703B1918002FF006F975
:100CE00003005A1C2B4B5B19DB19DA60164B196891
:100CF0007023FA1888235B00FB18180000F04EF9E7
:100D00000300234AB9180B60BB181A68234B110063
:100D100018000DF099FA114ABB181B680133BA1874
:100D2000136004E000230D4ABA181360C0461EF099
:100D3000BDFF88235B00FB186421180000F049F90F
:100D4000DBE6C046E00C031014170020A1060010DB
:100D5000380B0000F00C0310100D0310480B0000BE
:100D6000440B00001C0B0000240B0000280B0000AB
:100D700058F5FFFF50F5FFFF2C0B0000B80B0000EB
:100D800000002440200D03102C0D0310C40C031090
:100D9000340B000020F5FFFF400D03105C0D031025
:100DA0006C0D031080B582B000AF78607B68002BBB
:100DB00006D07B681B6804331B687A68100098476C
:100DC000C046BD4602B080BD80B582B000AF78603D
:100DD0007B681B68002B04D07B681B681800FFF73A
:100DE000F3FB7B681800BD4602B080BD80B582B0C1
:100DF00000AF78607B680433180000F03FF97B682F
:100E00001800BD4602B080BDB0B584B000AFF86038
:100E1000B9607A60FB68BA681A60FB68D033180062
:100E200003F02EFBFB68D833180003F029FBFB68A6
:100E3000E8331800FFF70FFCFB68EC3304241D00B7
:100E400004E02800FFF7D2FF013C1035002CF8DA4F
:100E5000FB683D33FF33180000F010F9FB687A6837
:100E60005A60FB68E52201219954FB68180000F0E4
:100E700014F9FB681800BD4604B0B0BD80B584B05D
:100E800000AF786039600823FA1839687B68180069
:100E900000F01DF903001800BD4604B080BD90B5F8
:100EA00089B002AFF860B9603B60FB1D1A703C6806
:100EB000FB1D1A78B968F8681423FB180093230007
:100EC00000F0C2F903001800BD4607B090BDF0B5B0
:100ED000C64600B588B002AFF860B9607A603B6082
:100EE0001423FB189846BB68180000F049FA050067
:100EF0007B68180000F044FA06003B68180000F018
:100F00003FFA04003B6B180000F03AFA0300F8685F
:100F10000193009433002A00414600F03AFAF86841
:100F2000BD4606B080BCB846F0BD90B585B000AFF8
:100F3000786039600C23FB181C003B68180000F037
:100F400055FA02007B682100180000F058FA786812
:100F5000BD4605B090BD80B582B000AF7860396005
:100F60003B681A687B681A607B681B68002B04D09A
:100F70007B681B681800FFF71AFB7B681800BD46EA
:100F800002B080BD80B582B000AF78607A68A423DB
:100F90005B00D35C1800BD4602B080BDB0B586B022
:100FA00002AFF860B9607A607B689C687B68DD6836
:100FB0007B681B787A685278B968F8680192009368
:100FC0002B00220000F031FA03001800BD4604B0E7
:100FD000B0BD90B587B000AF7860396000237B6109
:100FE00008243B19180003F04BFA3A683B1911002A
:100FF000180003F07DFA0FE00823FA187B6811004F
:10100000180000F033FA0300DB0FDBB2002B03D033
:1010100001235B427B610BE00823FB18180003F0FF
:1010200057FA03001A0001235340DBB2002BE3D12F
:101030007B691800BD4607B090BD000080B582B046
:1010400000AF7860034A7B681A607B681800BD4671
:1010500002B080BD900E031080B582B000AF786002
:101060007B681800FFF7EAFF7B680C2118000CF082
:1010700065FD7B681800BD4602B080BD80B582B0BA
:1010800000AF78607B6800221A607B6800225A609B
:101090007B681800BD4602B080BD80B582B000AF4D
:1010A00078607B68E422002199547A68A4235B006D
:1010B0000021D1547B68E5229B5C002B03D07B6828
:1010C000180000F0B9FAC046BD4602B080BD90B528
:1010D00089B000AFF860B9607A60FB685B681A009D
:1010E00010243B191100180003F0DDF901235B42C5
:1010F000FB610023BB61FA68A4235B00D35C002B77
:1011000000D089E0BB681B8B1900FB68E022995076
:10111000BB689B7E5A1E9341D9B2FB68E522995465
:10112000FB680833BA686421180004F09FFB0300D1
:10113000BB61BB695A1E1343DB0FDBB2002B6DD1C1
:101140003A19B969FB68180000F099FA0300FB61CD
:10115000FB695A1E9341DBB2002B61D1FB68E02290
:101160009B58002B09D0FB68D8331A00FB68E0219C
:101170005B581900100003F0CFF91023FA18FB6830
:101180000221180000F0CFFA0300023B5A425341FB
:10119000DBB2002B1DD07B6800221A607B68002226
:1011A0001A717B68181D7968FB686C331A00642318
:1011B00004F07EFC0300013B5A425341DBB2002B9A
:1011C00003D07B681B68FB6106E001235B42FB6187
:1011D00002E001235B42FB61FA68DA235B00D35A29
:1011E000002B1FD0FB6808331800FB684A33FF331D
:1011F000642219000CF076FCFA68D8235B00D15801
:10120000FA68DB235B00D35C1022BA18F86800F0A0
:10121000AFFA0300FB6106E0C04604E0C04602E00E
:10122000C04600E0C046FB69002B08D1FA68A42341
:101230005B000121D154FB68E42200219954FB6931
:101240001800BD4609B090BDF0B593B004AFF8608A
:10125000B9603B60FB1D1A7001235B427B63FB6836
:101260005B681A0028257B191100180003F01BF990
:1012700000233B631C26BB1918000C231A00002115
:101280000CF02AFCBB19BA681A60FA68A4235B0048
:10129000D35C01225340DBB2002B60D1FB680833E2
:1012A0001C00FB68E8331800FFF7E2F903009AB26C
:1012B000FB1D0293BB19019301230093130000222D
:1012C0006421200005F005F903003B633B6B002B14
:1012D00047DD7A19396BFB68180000F0D0F903007C
:1012E0007B637B6B5A1E9341DBB2002B3BD17A1997
:1012F000FB680921180000F016FA0300093B5A4266
:101300005341DBB2002B26D00023BB613B6D002292
:101310001A60396DFB686C331822BA181620381819
:101320006424019400930B00012105F067F9030088
:10133000013B5A425341DBB2002B15D03B6D1B6879
:10134000802B11D03A68B968FB68180000F071FA78
:1013500003007B6308E001235B427B6304E0C0463B
:1013600002E0C04600E0C0467B6B013303D1FB685E
:101370001800FFF792FE7B6B1800BD460FB0F0BD62
:1013800080B582B000AF78607B681800BD4602B0BF
:1013900080BDF0B5C64600B586B002AFF860B96052
:1013A0007A603B60FC687B681800FFF7E9FF060085
:1013B0003B681800FFF7E4FF8046BB6A1800FFF7A0
:1013C000DFFF0500FB6A1800FFF7DAFF0300B968CA
:1013D0000193009543463200200000F0A3FAFB6819
:1013E0001800BD4604B080BCB846F0BD80B582B0E0
:1013F00000AF78607B681800BD4602B080BD90B534
:1014000085B000AFF860B9607A60FC687B6818004E
:10141000FFF7ECFF0200BB681900200000F0BFFAE4
:10142000FB681800BD4605B090BDB0B58AB004AFEA
:10143000F860B9607A603B6016257B1900221A803B
:101440003C687A68B968F8682C23FB181B7802930B
:101450002823FB181B7801937B190093230000F0CD
:10146000C0FA03001800BD4606B0B0BDF0B595B097
:1014700006AF7860396000237B6300233B633A68E2
:101480007B681100180000F04BFB0300FB62FB6A55
:10149000002B00D1A2E0FB6A002B21DBFB6A0D2BA5
:1014A0001EDCFB6A022B1BDBFB6A01229A40130045
:1014B000604A1A40511E8A41D2B2002A00D08FE001
:1014C000802292011A40511E8A41D2B2002A00D0D5
:1014D0007FE0082213405A1E9341DBB2002B02D159
:1014E000FB6A3B6390E020217B1800221A607B1886
:1014F00000225A607B1800229A601026BB19002235
:10150000DA607B686C33BA19151DBA19541C0C22A9
:10151000B918BA19901C642204920393BB190C33B6
:101520000293BB19083301932023FB1800932B006F
:10153000220004F06AFB0300013B5A1E9341DBB218
:10154000002B5ED1FB68DAB2BB191A70BA192023DE
:10155000F9187B68180000F06CFBBB191B78002B96
:1015600040D03200BB191B78012B0DD17B680833AA
:101570001800BB189B88009300230422642104F008
:1015800010FF03007B6311E01022BB181B78022BB5
:101590000CD17B6808331800BB189B88009300238C
:1015A0000522642104F0FDFE03007B637B6B002BAE
:1015B00003DC01235B423B6307E03A68796B7B689D
:1015C000180000F05CF803003B633B6B013309D16A
:1015D0001AE07B68E4220021995404E0C04602E04E
:1015E000C04600E0C0467B68180000F0A3FB030083
:1015F0005A1E9341DBB2002B05D001235B423B63B3
:1016000002E0C04600E0C0463B6B002B02D1FB6A03
:101610003B6309E07A68A4235B00D35C002B03D012
:101620007B681800FFF739FD3B6B1800BD460FB013
:10163000F0BDC046140A000080B584B000AF7860E9
:101640000023FB600AE07A68FB68EC211B01D318D9
:101650005B1800221A60FB680133FB60FB68042BF7
:10166000F1DD7A68DA235B000021D1527A68DB234E
:101670005B000021D154C046BD4604B080BDF0B52A
:1016800087B000AFF860B9607A6001235B427B618C
:1016900000233B6121E0FB681C683B690833FA6862
:1016A000D518BA683B69D61A7B68180002F04FFF5C
:1016B000030032002900200003F03EFB03007B61A1
:1016C0007B69002B0EDB3A697B69D3183B617B6831
:1016D000180002F0FDFE031E06D13A69BB689A426B
:1016E000D9DB02E0C04600E0C0463A69BB689A42D6
:1016F00011D1FB68E0229B58002B09D0FB68D03346
:101700001A00FB68E0215B581900100002F004FF8A
:1017100000237B6102E001235B427B617B6918004F
:10172000BD4607B0F0BD80B586B000AFF860B960C7
:101730007A6001235B427B617B68180002F0C8FE7F
:10174000031E0FD17A68FB6811001800FFF78EFEA8
:1017500003007B617A69BB689A4204D07B69002BE5
:10176000EADA00E0C0467B691800BD4606B080BDDD
:1017700090B589B002AFF860B9607A601A00FB1CBE
:101780001A707A68B968FB681800FFF778FF0300E1
:101790007B617B695A1E9341DBB2002B3AD1FB1C63
:1017A0001B78012B38D17A68FB6804211800FFF7F9
:1017B000BAFF0300043B5A425341DBB2002B25D051
:1017C000FB686C331222BA181121791810203818CE
:1017D0006424009404F08FFA0300013B5A1E9341E5
:1017E000DBB2002B03D001235B427B6115E0FA687A
:1017F000DA235B00D25A1223FB181B889A420CD1C1
:10180000FA68DA235B000021D15206E001235B4233
:101810007B6102E0C04600E0C0467B69002B03D03C
:10182000FB681800FFF739FC7B691800BD4607B05C
:1018300090BD80B586B000AFF860B9607A600123D2
:101840005B427B6101235B423B6100233B6130E0F3
:10185000FA683B69EC211B01D3185B181B68002B4D
:1018600024D0FA683B69EC211B01D3185B181B6874
:10187000BA68110018002EF0B3FA031E16D17B6867
:10188000002B10D1FA683B69EC211B01D3185B18BF
:1018900000221A603B691B01E833FA68D318083349
:1018A000180000F0C3FA00237B6105E03B690133B7
:1018B0003B613B69042BCBDD7B68002B2DD07B6922
:1018C000013314D100233B610EE0FA683B69EC213F
:1018D0001B01D3185B181B68002B02D100237B610E
:1018E00005E03B6901333B613B69042BEDDD3B695E
:1018F000042B12DCFA683B69EC211B01D3185B183E
:10190000BA681A603B691B01E833FA68D3180833D8
:101910007A681100180000F097FA7B691800BD463C
:1019200006B080BDF0B5CE46474680B589B004AF5D
:10193000F860B9607A603B60FB6800221A60FB685F
:101940001C1DFD687B681800FFF71AFD81463B6887
:101950001800FFF715FD06003B6B1800FFF710FDA0
:1019600080467B6B1800FFF70BFD0300BA680293FB
:101970004346019300964B462900200000F070FA80
:10198000FB681A68FB681100180000F0C9FAFB68D0
:101990001800BD4605B0C0BCB946B046F0BDB0B5F4
:1019A00084B000AFF860B9607A60FB6800221A600A
:1019B000FB681C1DFD687B681800FFF717FD03001E
:1019C000BA682900200000F0B4FAFB681A68FB68C6
:1019D0001100180000F0F6FAFB681800BD4604B0CC
:1019E000B0BDF0B5C64600B594B008AFF860B960B8
:1019F0007A603B6001235B42FB62FB685B681A0014
:101A00002023FB181100180002F04DFD14217B1853
:101A100000221A607B1800225A607B1800229A600C
:101A20000023BB62FA68A4235B00D35C012253400D
:101A3000DBB2002B6AD17B18BA681A604C22BB1843
:101A40001B78012B03D0BB181B78022B08D1FB6835
:101A5000E8331800FEF70CFE03009AB2BB6C1A8044
:101A6000FB6808331C004C23FB181D785022BB1860
:101A70001B789C46BB6C1B8898463B6806937B682A
:101A800005931422BA1808236B4443CA43C3434640
:101A90000193634600932B0000226421200004F090
:101AA000CAFB0300BB62BB6A002B31DDFB68E52289
:101AB0009B5C01225340DBB2002B1BD0FB6818005B
:101AC0004A30FF30FB680833BA6A19000CF00AF894
:101AD000BB6C1988FA68DA235B00D152FA68D82304
:101AE0005B00B96AD150FA684C23F918DB235B001C
:101AF0000978D1544C23FB181B782022BA18B96AF4
:101B0000F868FFF735FE0300FB6202E0C04600E024
:101B1000C046FB6A1800BD460CB080BCB846F0BD9C
:101B2000F0B587B000AF7860396001235B427B611C
:101B30000023FB6000233B610023BB607B681C68C3
:101B40007B686C331D003B68180002F000FD030049
:101B500001222900200003F033F803007B617B6938
:101B6000012B5CD101233B613B68180002F0EFFCC4
:101B700002000823F9187B68180000F02CFA7B6833
:101B80006C330133BA681100180004F005F9020043
:101B90003B699B183B613B696422D21ABB689A423D
:101BA00003DA02235B427B613EE0BB68002B17DD5A
:101BB0007B681C687B686C331A003B69D518BE686B
:101BC0003B68180002F0C3FC03003200290020002B
:101BD00002F0F6FF0200BB689A4201D0012300E048
:101BE0000023002B1DD17B686C229A5C0C217B1892
:101BF0001A707B181B781B061B0FDBB27B617B689E
:101C0000E0229B58002B0ED07B68D8331A007B68EB
:101C1000E0215B581900100002F07EFC04E0C04691
:101C200002E0C04600E0C0467B691800BD4607B030
:101C3000F0BD90B58BB000AFF860B9607A60012359
:101C40005B427B6200233B624BE0FA683B6AEC211B
:101C50001B01D3185B181B68002B1DD0FA683B6A68
:101C6000EC211B01D3185B181A68BB68110018001F
:101C700004F088FA031E0DD1FA683B6AEC211B01BF
:101C8000D3185B181968BA68FB68180000F0EFF900
:101C9000031E01D0012300E00023002B1ED03B6A6D
:101CA0001B01E833FA68D3180833180000F046FA2D
:101CB000031E13D07A68B96818243B191800FEF780
:101CC000B9FC3B6A1B01E833FA68D31808333A19A8
:101CD0001100180000F045FA00237B623B6A0133D3
:101CE0003B623B6A042BB0DD7B6A013309D1FB68A0
:101CF0003D33FF33180000F021FA031E01D0012309
:101D000000E00023002B10D07A68B96810243B193A
:101D10001800FEF78FFCFB683D33FF333A191100C2
:101D2000180000F01EFA00237B627B6A1800BD4693
:101D30000BB090BD90B587B000AF786000237B6199
:101D4000384B180024F096FB03005A1E9341DBB277
:101D5000002B07D0344B180002F092FB314B1800D7
:101D600024F0A4FB7B68E0229B58002B52D07B68B8
:101D7000E4229B5C002B09D02B4B180002F0A8FB3F
:101D8000031E4AD001235B427B6146E07B68D0336F
:101D9000180002F09DFB031E06D17B68D8331800A3
:101DA00002F096FB031E01D0012300E00023002B6C
:101DB00032D0FA239A0008243B191100180002F0CF
:101DC00072FB7B6808336421180003F00EFF0300E8
:101DD0003B613B69002B0CDD3A1939697B681800BF
:101DE000FFF74DFC03007B617B69002B01D10123D0
:101DF00000E00023002B10D07B68E42201219954DD
:101E00007B68E0229B581A00074B1100180002F073
:101E100083FB02E0C04600E0C0467B691800BD4677
:101E200007B090BD101F0020D81D002080B582B0E3
:101E300000AF78607B6800221A607B6800225A60DD
:101E4000C046BD4602B080BD80B582B000AF7860AC
:101E500039607B683A685A60C046BD4602B080BDB2
:101E6000F0B5CE46474680B58FB002AFF860B96096
:101E70007A603B607B687B621C22BB183B62142447
:101E80003B19BA181100180000F09FF93B1918000F
:101E900000F0D1F90300FB62FB6A19004020FEF755
:101EA0007CFB04003B681800FFF76AFA06003B6DF4
:101EB0001800FFF765FA80467B6D1800FFF760FA9F
:101EC0000500BB6D1800FFF75BFA03000193009556
:101ED000434632004946200000F0BCF9BC6214249D
:101EE0003B190021180000F011FAFB68BA6A1A6069
:101EF000BB6A180000F017FA0200BB681A603B19B1
:101F0000180000F07CF91C22BB18180000F0ADFA94
:101F1000FB681800BD460DB0C0BCB946B046F0BD68
:101F200080B582B000AF78603960C046BD4602B06F
:101F300080BDF0B58DB000AFF860B9607A603B60ED
:101F40007B687B621C22BB183B621426BB19BA1843
:101F50001100180000F0F5F9BB19180000F027FA7D
:101F60000300FB62FA6ABC235B0011001800FEF755
:101F700014FB04003B681800FFF738FA03001A004E
:101F8000291C200000F022FABC62BB1900211800B5
:101F900000F050FAFB68BA6A1A60BB6A180000F0D9
:101FA00056FA0200BB681A60BB19180000F0E3F98A
:101FB0001C22BB18180000F0B1FAFB681800BD46DF
:101FC0000DB0F0BD80B582B000AF78603960C0461A
:101FD000BD4602B080BD90B58BB000AFF860B9606F
:101FE0007A6001237B6200233B620423FB61BB68B0
:101FF00000221A6001235B42BB613B6A01333B62F2
:1020000001231A1C3B6A042B01DC00231A1CD3B2E7
:10201000002B03D001235B42BB6123E0FB681868FF
:102020007B6817243919012202F0CAFD0300BB6145
:10203000BB69012B15D1BB681A6820003B181B78BF
:1020400019007F230B40796A4B43D218BB681A6092
:102050007B6ADB017B623B181B785BB2002BC9DB20
:1020600000E0C0463B6A1800BD460BB090BD80B58D
:1020700088B000AFF860B9607A60BB68FB617B68CC
:102080009B68BB617B685B681A00BB699B183B61FE
:1020900039E0BB691B782F2B03D1FB691B782F2BF1
:1020A0003AD1FB691B782B2B09D0FB691B78232BBA
:1020B00005D0FB691A78BB691B789A422ED1FB695F
:1020C0001B782B2B12D1BB6901337B6105E0BB6907
:1020D0000133BB61BB6901337B617A693B699A4219
:1020E0000BD27B691B782F2BF1D106E0FB691B78A3
:1020F000232B02D13B69013BBB61FB690133FB61CF
:10210000BB690133BB61FB691B78002B07D0BA693F
:102110003B699A42BDD302E0C04600E0C046BA69BE
:102120003B699A4205D1FB691B78002B01D1012341
:1021300000E000231800BD4608B080BD80B582B025
:1021400000AF78607B681B68002B03D17B685B68FD
:10215000002B01D0012300E000231800BD4602B08F
:1021600080BD80B582B000AF786039607B685B6805
:10217000002B26D07B681B68002B1CD07B689B68DB
:10218000012213400BD07B681A687B689B685B1048
:10219000D3181A687B685B68D3181B6801E07B68FA
:1021A0005B687A6811687A68926852108A18396890
:1021B0001000984706E07B685B683A681000984713
:1021C00000E0C046BD4602B080BD80B584B000AF1F
:1021D000786039603B68FB600123BB60B968FB68CD
:1021E0000022180000F0E0F90200C04639687B6860
:1021F000180000F043F97868BD4604B080BD80B592
:1022000086B000AF78607B685B68002B0ED07B687F
:102210001A687B685B687A613B610123FB60FA683E
:1022200039697B69180000F0F2F9C0467B68180034
:10223000BD4606B080BD80B582B000AF78607B68D7
:102240005B68180000F02FF903001800BD4602B0CB
:1022500080BD0000F0B5C64600B58CB002AFF86096
:102260000820381801707A603B60FB68180000F0A5
:1022700023F9254AFB681A60FB680C33211C1800FF
:1022800000F02EF9FB68180000F04DF880467B68DE
:102290001800FFF775F806003B681800FFF770F8A4
:1022A00005003B6C1800FFF76BF804007B6C18000E
:1022B000FFF766F8030042467A623E62FD61BC6148
:1022C0007B613B6A1800FFF75BF80400FB691800AC
:1022D000FFF756F80500BB691800FFF751F8060034
:1022E0007B691800FFF74CF80300786A009333000D
:1022F0002A00210000F0A5F9C046FB681800BD4681
:102300000AB080BCB846F0BD740E031080B582B030
:1023100000AF786039607B6800225A607B681800E3
:10232000BD4602B080BD80B582B000AF78607B68EA
:102330000C33180000F0E5F803001800BD4602B0A9
:1023400080BD80B584B000AF786039603B68FB60C9
:102350000123BB60B968FB680022180000F0B4F9E3
:102360000200C04639687B68180000F0E0F8786821
:10237000BD4604B080BD80B586B000AF78607B6894
:102380005B68002B0ED07B681A687B685B687A619B
:102390003B610123FB60FA6839697B69180000F032
:1023A000CCF9C0467B681800BD4606B080BD80B53C
:1023B00082B000AF78607B685B68180000F0CCF8F2
:1023C00003001800BD4602B080BD000090B587B084
:1023D00000AFF8600823FB1819707A60FB681800DA
:1023E00000F06AF8124AFB681A60FB680C33211C83
:1023F000180000F0BAF8FB68180000F028F8040094
:102400007B681800FEF7F2FF03007C613B613B69CB
:102410001800FEF7EBFF02007B691100180000F0C6
:10242000C8F9C046FB681800BD4607B090BDC0465D
:10243000580E031080B582B000AF786039607B68B9
:1024400000225A607B681800BD4602B080BD80B58E
:1024500082B000AF78607B680C33180000F096F80B
:1024600003001800BD4602B080BD80B582B000AF49
:1024700078607B681800BD4602B080BD80B584B02E
:1024800000AFF860B9607A60BB68180000F0B6F879
:102490000200FB681A60FB687A685A60FB681800E3
:1024A000BD4604B080BD80B582B000AF78607B6867
:1024B0001800BD4602B080BD80B582B000AF786024
:1024C000064A7B681A607B6801225A607B68012299
:1024D0009A607B681800BD4602B080BD900E031064
:1024E00080B582B000AF78603B0019703A007B681D
:1024F0001100180000F09BF87B681800BD4602B080
:1025000080BD80B582B000AF78607B68180000F0B5
:10251000D2F803001800BD4602B080BD80B582B07D
:1025200000AF78607B681800BD4602B080BD80B502
:1025300084B000AFF860B9607A60BB68180000F042
:10254000F3F80200FB681A60FB687A685A60FB685F
:102550001800BD4604B080BD80B582B000AF786081
:102560007B681800BD4602B080BD80B582B000AF68
:1025700078603B0019703A007B681100180000F089
:1025800056F87B681800BD4602B080BD80B582B0A9
:1025900000AF78607B68180000F030F90300180085
:1025A000BD4602B080BD000080B586B000AFF860C7
:1025B000B9607A60FB687B610F4ABB689A429B41B5
:1025C0005B42DBB25A1E9341DBB2002B08D0BA68E3
:1025D0008023DB049A4201D324F040F824F02EF843
:1025E000BB689B0118000BF083FA0300C04618007B
:1025F000BD4606B080BDC046FFFFFF0180B582B07A
:1026000000AF78607B681800BD4602B080BD80B521
:1026100084B000AFF860B9607A607B689A01BB68EB
:10262000110018000BF08AFABD4604B080BD80B5D9
:1026300082B000AF786039607B681800BD4602B098
:1026400080BDF0B5C64600B588B004AFF860B9608B
:102650007A603B60FB6819003420FDF79EFF8046DE
:10266000BB681800FEF78CFE03001C687B6818002E
:10267000FEF786FE03001D683B681800FEF780FE2B
:1026800003001E68BB6A1800FEF77AFE03001B6891
:102690008022520002928022520001920093330065
:1026A0002A002100404601F0C9F9C046BD4604B0E9
:1026B00080BCB846F0BD80B582B000AF78607B6862
:1026C0001800BD4602B080BD80B586B000AFF8608E
:1026D000B9607A60FB687B61114ABB689A429B4192
:1026E0005B42DBB25A1E9341DBB2002B07D0BB68C2
:1026F0000C4A934201D923F0B1FF23F09FFFBA683F
:1027000013005B009B181B019B1ADB0018000BF0E9
:10271000EFF90300C0461800BD4606B080BDC046B4
:1027200020265700414CAE0080B582B000AF7860E3
:102730007B681800BD4602B080BD80B584B000AF94
:10274000F860B9607A607A6813005B009B181B011F
:102750009B1ADB001A00BB68110018000BF0EEF9A1
:10276000BD4604B080BD80B582B000AF78603960EE
:102770003B681A687B681A607B681A1D3B680433E3
:1027800019001000FEF7E7FB7B681800BD4602B099
:1027900080BD80B582B000AF786039607B683A68F0
:1027A00011001800FFF7DFFF7B681800BD4602B07C
:1027B00080BDB0B584B000AF786039607A68B62368
:1027C0005B0011001800FDF7E8FE04003B681800EC
:1027D000FEF70CFE020008257B1911001800FFF718
:1027E000D8FF7B191900200002F03CFE7B1918006D
:1027F000FDF78AFFC046BD4604B0B0BD80B582B0CB
:1028000000AF78607B681800BD4602B080BD000054
:1028100080B582B000AF7860054A7B681A607B683B
:102820001800FEF70BFC7B681800BD4602B080BDA7
:10283000580E031080B582B000AF78607B68180036
:10284000FFF7E6FFBC235A007B68110018000BF06D
:1028500075F97B681800BD4602B080BD90B585B0A3
:1028600000AF78607B680C33180000F0DFF80400DC
:102870007B681800FFF7EBFD0300FC60BB60BB68E2
:10288000180000F003F9C046C046BD4605B090BD33
:10289000B0B588B000AF78607B680C33180000F0EA
:1028A000C5F80300FB6114243B19BB617A68391930
:1028B0000C257B191800FFF73AFE7B681800FFF71C
:1028C000A7FF7B191800FFF756FD3B191800FFF70B
:1028D00025FEC046BD4608B0B0BD80B584B000AF8F
:1028E000786039607B681800FFF7B1FD0300FB607A
:1028F000FDF798FE02003B68934205D03B68180044
:1029000023F0ECFE031E01D0012300E00023002B86
:1029100001D0FB6800E000231800BD4604B080BD74
:1029200080B582B000AF7860054A7B681A607B682A
:102930001800FEF783FB7B681800BD4602B080BD1F
:10294000740E031080B582B000AF78607B68180009
:10295000FFF7E6FF7B68402118000BF0EFF87B687B
:102960001800BD4602B080BD90B585B000AF78605C
:102970007B680C33180000F066F804007B681800D0
:10298000FFF7D1FC0300FC60BB60BB68180000F0DF
:10299000A9F8C046C046BD4605B090BDB0B588B0E8
:1029A00000AF78607B680C33180000F04CF803002F
:1029B000FB6114243B19BB617A6839190C257B191A
:1029C0001800FFF75BFD7B681800FFF7A9FF7B1974
:1029D0001800FFF714FC3B191800FFF746FDC0462E
:1029E000BD4608B0B0BD80B584B000AF7860396036
:1029F0007B681800FFF797FC0300FB60FDF712FEF1
:102A000002003B68934205D03B68180023F066FE45
:102A1000031E01D0012300E00023002B01D0FB683E
:102A200000E000231800BD4604B080BD80B582B030
:102A300000AF78607B68180000F012F803001800FF
:102A4000BD4602B080BD80B582B000AF78607B68C3
:102A5000180000F005F803001800BD4602B080BD64
:102A600080B582B000AF78607B681800BD4602B0C8
:102A700080BD80B582B000AF78607B681800FDF73C
:102A800043FE7B681800BD4602B080BD80B582B0B1
:102A900000AF78607B681800FFF7EBFFC046BD46CB
:102AA00002B080BD80B582B000AF78607B6808332B
:102AB000180000F023F87B681800BD4602B080BD06
:102AC00080B582B000AF78607B6814331800FFF7E0
:102AD000E9FF7B681800FFF7E5FF7B681800BD463B
:102AE00002B080BD80B582B000AF78607B6818000E
:102AF000FFF7E6FFC046BD4602B080BDB0B586B068
:102B000000AF78607B681D687B685C687B68180034
:102B100000F03CF803007D613C61FB603A697B6931
:102B20001100180000F055F8C0467B68180000F04E
:102B300014F87B681800BD4606B0B0BD80B584B0FF
:102B400000AF78607B68FB60FB68180000F050F80D
:102B50007B681800BD4604B080BD80B582B000AF70
:102B600078607B6819687B689A687B681B68D31AF1
:102B70001A007B68180000F012F87B681800FFF755
:102B8000DDFF7B681800BD4602B080BD80B582B015
:102B900000AF78607B681800BD4602B080BD80B58C
:102BA00088B000AFF860B9607A60BB68002B0CD0C9
:102BB000FB68FB61BB68BB617B687B617A69B96953
:102BC000FB69180000F026F8C046C046BD4608B0B4
:102BD00080BD80B582B000AF786039603A687B68AC
:102BE0001100180000F00DF8C046BD4602B080BDCF
:102BF00080B582B000AF78607B681800BD4602B037
:102C000080BD80B582B000AF78603960C046BD46F7
:102C100002B080BD80B584B000AFF860B9607A6062
:102C20007A68BB68110018000AF088FFBD4604B03E
:102C300080BD80B584B000AF78607A6882235B0085
:102C4000D35A19000F203B187A68525C1A707A68C0
:102C500082235B00D35A013399B27A6882235B00E6
:102C6000D1523B181B781800BD4604B080BD80B51A
:102C700082B000AF78600A00FB1C1A707A68822369
:102C80005B00D35A19007B68FA1C12785A547A6890
:102C900082235B00D35A013399B27A6882235B00A6
:102CA000D152C046BD4602B080BD80B582B000AFF3
:102CB00078607A6882235B00D35A013399B27A68CC
:102CC00082235B00D152C046BD4602B080BD80B5B4
:102CD00084B000AF78607A6882235B00D35A1A0010
:102CE0007B689B5C1BB21B021AB2796882235B0073
:102CF000CB5A01337968CB5C1BB213431AB20E2056
:102D00003B181A807A6882235B00D35A023399B247
:102D10007A6882235B00D1523B181B881800BD469D
:102D200004B080BD80B582B000AF78600A00BB1CE3
:102D30001A80BB1C1B881B0A99B27A6882235B002D
:102D4000D35A1A00C9B27B6899547A6882235B000F
:102D5000D35A0133BA1C1288D1B27A68D1547A6836
:102D600082235B00D35A023399B27A6882235B00D4
:102D7000D152C046BD4602B080BD80B582B000AF22
:102D800078607A6882235B000021D152C046BD463C
:102D900002B080BD80B582B000AF78607B6818005B
:102DA000FFF7EBFF7A6883235B000021D1547A6838
:102DB0000823FF330021D1547A6884235B0000216B
:102DC000D1527A6885235B000021D1547A680C23A4
:102DD000FF330021D154C046BD4602B080BD000083
:102DE00080B582B000AF78600A00FB1C1A707A6868
:102DF000A9235B00D35A214A934205D17A68A923BB
:102E00005B000121D15209E07A68A9235B00D35A03
:102E1000013399B27A68A9235B00D1527B6818000C
:102E2000FFF7B8FF7A685223FF33D15C7A688323B7
:102E30005B00D1547A68F91C0823FF330978D15418
:102E40007A68A9235B00D15A7A6884235B00D15247
:102E50007A6883235B00D35C002B0AD17A68A023B5
:102E60005B00D35C012B04D17A6885235B000121D0
:102E7000D154C046BD4602B080BDC046FFFF000031
:102E800090B583B000AF786039607B68002B02D1C9
:102E900001235B4239E0AA235A007B680021180015
:102EA0000AF01AFE7A689C235B0001214942D15046
:102EB0007A689E235B0001214942D1503B68002B78
:102EC00002D101235B4220E03B681B78012B06D036
:102ED0003B681B78022B02D001235B4215E03B6864
:102EE0005B68002B03D03B689B68002B02D1012359
:102EF0005B420AE07A68A0235B003968D3180A00B5
:102F000013CA13C312681A6000231800BD4603B029
:102F100090BD80B582B000AF786039607A689E233A
:102F20005B003968D150C046BD4602B080BD80B557
:102F300082B000AF786039607A689C235B003968A2
:102F4000D150C046BD4602B080BD80B582B000AF52
:102F500078600A00FB1C1A707A68F91C5223FF3350
:102F60000978D154C046BD4602B080BD80B586B058
:102F700000AF786039601623FB18012252421A8094
:102F800000233B612EE07A683B69D3181B78190057
:102F90001622BB18BA1812884A401A800823FB6010
:102FA0001AE016217B181B88012213400BD07B18D6
:102FB0007A18128852081A807B187A1812881049D9
:102FC0004A401A8005E01622BB18BA181288520827
:102FD0001A80FB68013BFB60FB68002BE1D13B6979
:102FE00001333B613A693B689A42CCD31623FB1804
:102FF0001B885BBA9BB21800BD4606B080BDC046B8
:1030000001A0FFFFB0B584B000AF78600A00BB1C20
:103010001A807A68A2235B00D4587B687968822280
:1030200052008A5A98187A689C235B00D5587A68AF
:10303000A6235B00D258BB1C198813002A00A047A6
:103040000300FB60BB1C1B88FA689A4201D1002375
:103050000FE0BB1C1B88FA689A4208DAFB68002B59
:1030600002DA04235B4204E003235B4201E0042311
:103070005B421800BD4604B0B0BDB0B584B000AF2F
:1030800078600A00BB1C1A807A68A4235B00D458BD
:1030900078687A689C235B00D5587A68A6235B0021
:1030A000D258BB1C198813002A00A0470300FB60FC
:1030B000BB1C1B88FA689A4201D100230FE0BB1C9D
:1030C0001B88FA689A4208DAFB68002B02DA0423AC
:1030D0005B4204E003235B4201E004235B421800EF
:1030E000BD4604B0B0BDB0B584B000AF78607A68BA
:1030F000A0235B00D35C012B2FD178687A688223F0
:103100005B00D35A0E22BC181900FFF72FFF0300F3
:1031100023800D257C197B6802211800FFF772FFC0
:10312000030023707B191B785BB2002B03D07B1943
:103130001B785BB212E00A257C197B681800FFF748
:10314000C6FD030023807A190E23FB1812881B8802
:103150009A4202D005235B4200E000231800BD46DE
:1031600004B0B0BDB0B586B000AF786039607A68A1
:103170009C235B00D3587B617A689E235B00D15807
:103180007A689C235B00D1507B681800FFF702FE31
:103190003B6800221A707A68A0235B00D35C012B85
:1031A00040D10D257C197B6801211800FFF72AFF0B
:1031B000030023707A689C235B007969D1507B19E6
:1031C0001B785BB2002B03D07B191B785BB2A1E0AC
:1031D0003B6801221A707B681800FFF72AFD030084
:1031E00019007A6883235B00D1540D257C197B6814
:1031F00001211800FFF706FF030023707B191B78DD
:103200005BB2002B03D07B191B785BB282E07B683A
:103210001800FFF70EFD030019007A680823FF333A
:10322000D15476E07A68A0235B00D35C022B70D186
:1032300013257C197B6801211800FFF7E3FE0300CA
:1032400023707A689C235B007969D1507B191B78C5
:103250005BB2002B03D07B191B785BB25AE03B6852
:1032600001221A707B681800FFF71FFD13257C19D7
:103270007B6807211800FFF7C5FE030023707B1948
:103280001B785BB2002B03D07B191B785BB241E04B
:103290007B681800FFF771FD7B681800FFF717FDCA
:1032A000030019007A6884235B00D15210257C1931
:1032B0007B681800FFF70BFD030023800E23FC182A
:1032C0007B681800FFF703FD030023807B6818006C
:1032D000FFF7AFFC030019007A6883235B00D15429
:1032E0007B681800FFF7A5FC030019007A68082323
:1032F000FF33D1547B191B88002B02D006235B427D
:1033000008E00E23FB181B88FF2B02D906235B4223
:1033100000E000231800BD4606B0B0BD80B582B005
:1033200000AF78600A00BB1C1A807B681800FFF7AA
:1033300024FD7A68A0235B00D35C012B09D17A6855
:1033400083235B00D25C7B6811001800FFF78FFCC1
:1033500025E07A68A0235B00D35C022B1FD17A683A
:1033600084235B00D25A7B6811001800FFF7DAFC57
:103370007B6800211800FFF7D5FCBB1C1B880233BB
:103380009AB27B6811001800FFF7CCFC7A6883239F
:103390005B00D25C7B6811001800FFF768FC7A685C
:1033A0000823FF33D25C7B6811001800FFF75FFC35
:1033B000C046BD4602B080BDB0B584B000AF7860F5
:1033C0007A68A0235B00D35C012B12D178687A68FD
:1033D00082235B00D35A0E257C191900FFF7C6FD26
:1033E000030023807B191A887B6811001800FFF7FF
:1033F00099FC7A6882235B00D25A0D257C197B6880
:1034000011001800FFF739FE030023707B191B78A9
:103410005BB21800BD4604B0B0BDB0B584B000AF1B
:1034200078600E23FB187968842252008A5A1A8029
:103430000D23FB187968832252008A5C1A700C23D2
:10344000FB1879680822FF328A5C1A700B257C19F8
:103450000923FA187B6811001800FFF783FE0300A8
:1034600023707B191B785BB2002B03D07B191B7870
:103470005BB276E07A68A0235B00D35C022B0BD1B1
:103480007A6884235B00D35A0E22BA1812889A42B3
:1034900002D006235B4264E07A68A0235B00D35C21
:1034A000012B0BD17A6883235B00D35C0D22BA1801
:1034B00012789A4202D007235B4252E07A680823CE
:1034C000FF33D35C0C217A1812789A4248D07A687C
:1034D0000823FF33D35C803B1A007B181B789A4289
:1034E0003BD10B257C197B6801211800FFF78AFD71
:1034F000030023707B191B785BB2002B03D07B1970
:103500001B785BB22DE00A23FC187B681800FFF7DC
:1035100090FB030023700B257C197B681800FFF7D4
:10352000E2FD030023707B191B785BB2002B03D0F4
:103530007B191B785BB214E00A22BB181B78002BA6
:1035400003D0BB181B78042B02D902235B4208E08E
:103550000A23FB181B785BB203E002235B4200E006
:1035600000231800BD4604B0B0BD80B582B000AFE6
:1035700078600A00BB1C1A80BB1C1A887B6811008B
:103580001800FFF7CBFEC046BD4602B080BDB0B507
:1035900086B000AFF8607A600A23FB180A1C1A8014
:1035A00013257C19FB681800FFF737FF0300237011
:1035B0007B191B785BB2002B03D07B191B785BB2A5
:1035C0006DE013257C19FB6801211800FFF71AFD37
:1035D000030023707B191B785BB2002B03D07B198F
:1035E0001B785BB25BE012257C19FB681800FFF7C3
:1035F00020FB030023707B191B789AB213257C19DA
:10360000FB6811001800FFF7FDFC030023707B1915
:103610001B785BB2002B03D07B191B785BB23EE0BA
:1036200000237B6114E010257C19FB681800FFF76C
:103630004EFB030023807B68002B06D07B695B0078
:103640007A68D3187A1912881A807B6901337B61F2
:103650001223FB181B785B08DBB21A007B699342CC
:10366000E1DB13257C19FB681800FFF73CFD030024
:1036700023707B191B785BB2002B03D07B191B785E
:103680005BB20CE01223FB181A780A23FB181B8884
:103690005B009A4202D002235B4200E00023180044
:1036A000BD4606B0B0BD80B582B000AF786039606D
:1036B0003A687B6811001800FFF7E2FB030018006E
:1036C000BD4602B080BDB0B586B000AFF8600C005A
:1036D000100019000B23FB18221C1A700823FB187A
:1036E000021C1A80BB1D0A1C1A80BB1D1B88002BE4
:1036F00003D0BB1D1B887D2B02D901235B4241E017
:103700000823FB181A88BB1D1B88D21880235B0274
:103710009A4202D901235B4234E00B23FB181A784A
:10372000FB6811001800FFF75BFBFB680421180021
:10373000FFF71BFF0823FB181A88FB68110018000D
:10374000FFF7F0FABB1D1A88FB6811001800FFF79D
:10375000E9FA17257C19FB681800FFF72DFE030016
:1037600023707B191B785BB2002B03D07B191B786D
:103770005BB207E0BA6ABB1D1988FB681800FFF747
:1037800006FF03001800BD4606B0B0BD90B587B077
:1037900002AFF860080011007B600A243B19021C8C
:1037A0001A8008203B180A1C1A803B1819883B19FC
:1037B0001A88F8687B6800930B000321FFF783FFEA
:1037C00003001800BD4605B090BD90B587B002AFAC
:1037D000F860080011007B600A243B19021C1A8063
:1037E00008203B180A1C1A803B1819883B191A88B4
:1037F000F8687B6800930B000421FFF764FF030067
:103800001800BD4605B090BD80B582B000AF7860AD
:103810007B68054A934201D1012300E00023180090
:10382000BD4602B080BDC0460080034080B582B076
:1038300000AF78607B681800FFF7E6FF7B68180030
:10384000BD4602B080BD90B58DB000AF7860080075
:103850001100FB1C021C1A70BB1C0A1C1A70BB1C3A
:103860001B785A01FB1C1B781B011A43FB1C1B789D
:103870009B011A4314007B681800FFF7D7FF030071
:103880009C63FB1C1B78002B1BD07B681800FFF788
:10389000CDFF030034337B620023BB623823FB621D
:1038A0007B6A1A68BB6A5340FA6A13407A6A3A62C2
:1038B000FB613B6A802252011343FA691A60C046D9
:1038C000C046BB1C1B78002B1BD07B681800FFF781
:1038D000ADFF03003433BB6100237B6107233B61F1
:1038E000BB691A687B6953403A691340BA69FA6048
:1038F000BB60FB68802252011343BA681A60C0465D
:10390000C046C046BD460DB090BD80B582B000AF88
:1039100078607B681800FFF789FF03009B6920220D
:1039200013405A425341DBB21800BD4602B080BD7D
:1039300080B582B000AF78607B681800FFF776FF33
:1039400003009B69102213405A425341DBB2180016
:10395000BD4602B080BD80B586B000AFF860B960EA
:103960007A6000237B611AE0C046FB681800FFF70D
:10397000DFFF03001A0001235340DBB2002BF3D119
:10398000FB681800FFF752FF03001B68D9B2BB6841
:103990005A1CBA600A1C1A707B6901337B617A6910
:1039A0007B689A42E1D3C046C046BD4606B080BDA2
:1039B00090B585B000AF78600F2439197B6801227B
:1039C0001800FFF7C8FF3B191B781800BD4605B06B
:1039D00090BD000080B500AF0A4B1B68002B0AD0D9
:1039E000084B1B68180000F021F9064B1B681800F3
:1039F00000F03FF903E00021142004F0ABFAC046C8
:103A0000BD4680BD141F002080B500AF0A4B1B6867
:103A1000002B0AD0084B1B68180000F007F9064B72
:103A20001B68180000F025F903E00021152004F0C0
:103A300091FAC046BD4680BD181F002080B584B0F5
:103A400000AFF860B9607A603B60FB68FA6911000A
:103A5000180000F084F9FB6814333A6A110018006A
:103A600000F07DF9FB68BA691A63BB68002B01D1CD
:103A7000142200E01522FB68DA62BB68002B01D13A
:103A8000224A00E0224AFB689A62BB68002B03D1FD
:103A9000204BFA681A6002E01F4BFA681A60FB6854
:103AA000DB6A0021180004F055FAFB689B6ABA69CA
:103AB0001100180007F020F87B680221180003F0BD
:103AC000DFFE3B680221180003F0DAFEFB68DB6AC8
:103AD0001A00BB68002B01D1104B00E0104B1900FD
:103AE000100004F0ADFAFB689B6A00220121180067
:103AF000FFF7A9FEFB68DB6A0121180004F02AFA2F
:103B0000FB681800BD4604B080BDC04600400340BD
:103B100000800340141F0020181F0020D53900101A
:103B2000093A001080B586B000AFF860B9607A60DD
:103B300000237B610EE0FB681433180000F08EF95F
:103B400003001900BB685A1CBA600A1C1A707B6912
:103B500001337B617A697B689A420DDAFB68143322
:103B6000180000F01BF903001A0001235340DBB2D8
:103B7000002B01D0012300E00023002BDBD17B6967
:103B80001800BD4606B080BD80B586B000AFF860B5
:103B9000B9607A6000237B610AE0F868BB685A1C50
:103BA000BA601B78190000F026F97B6901337B614C
:103BB0007A697B689A420CDAFB68180000F0FEF81C
:103BC00003001A0001235340DBB2002B01D0012374
:103BD00000E00023002BE0D1FB68DB6A0021180025
:103BE00004F0B8F9FB689B6A1800FFF71FFE03009A
:103BF0009B6B202213405A425341DBB2002B0AD068
:103C0000FB689B6A012201211800FFF71CFEFB687C
:103C1000180000F02EF8FB68DB6A0121180004F0A0
:103C200099F97B691800BD4606B080BDB0B584B077
:103C300000AF786011E07B689B6A0F257C19180043
:103C4000FFF7B6FE030023707B6814331A007B195C
:103C50001B781900100000F0CEF87B689B6A1800F2
:103C6000FFF766FE031EE6D1C046C046BD4604B05F
:103C7000B0BD90B583B000AF78600CE07B681800F1
:103C800000F0ECF803001C007B689B6A1800FFF74B
:103C9000CDFD03001C607B68180000F07FF8030076
:103CA0001A0001235340DBB2002B08D07B689B6ACB
:103CB0001800FFF72AFE031E01D0012300E00023B5
:103CC000002BDBD17B68180000F068F8031E06D0DB
:103CD0007B689B6A002201211800FFF7B4FDC046F3
:103CE000BD4603B090BD000090B589B000AF7860CC
:103CF0000C243B190F4A03CA03C312781A707B685D
:103D00009B6A1800FFF792FD0300DB6AFB617B688A
:103D10009B6A1800FFF78AFD03005B6BDB08072234
:103D20001340BB613A19BB69D3181B781800BD4614
:103D300009B090BDA40E031080B582B000AF7860CA
:103D40007B681B6B1800BD4602B080BD80B582B099
:103D500000AF78607B681800BD4602B080BD90B5AA
:103D600085B000AF786039607B6800221A607B689C
:103D700000225A607B6808331800396808243B1910
:103D8000FB603B191A0000F099F83B191800FEF788
:103D90002FFF7B681800BD4605B090BD80B582B08E
:103DA00000AF78607B681A687B685B68D31A5A42F8
:103DB0005341DBB21800BD4602B080BD90B583B060
:103DC00000AF78607B681B685C1C7B680833180058
:103DD00000F092F803001900200009F0C5F90B006B
:103DE0001A007B685B68D31A5A425341DBB2180051
:103DF000BD4603B090BD90B585B000AF78600A00B5
:103E0000FB1C1A707B681B685C1C7B6808331800FD
:103E100000F072F803001900200009F0A5F90B006A
:103E2000FB607B685B68FA689A4201D1002311E06D
:103E3000FB1C1C787B6808331A007B681B68190020
:103E4000100000F066F80300221C1A707B68FA6804
:103E50001A6001231800BD4605B090BD90B585B02D
:103E600000AF78607B6808331A007B685B681900D4
:103E7000100000F04EF802000F23FB1812781A70A1
:103E80007B681A687B685B689A4210D07B685B68C5
:103E90005C1C7B680833180000F02EF80300190042
:103EA000200009F061F90B001A007B685A600F23AB
:103EB000FB181B781800BD4605B090BD90B585B0C5
:103EC00000AFF860B9607A60FC687A68BB6811007E
:103ED000180000F02BF801007B681A00200000F0A9
:103EE0004DF8BA68FB681100180000F05EF8FB6836
:103EF0001800BD4605B090BD80B582B000AF7860B7
:103F00007B685A687B681B68D31A1800BD4602B0EC
:103F100080BD80B582B000AF786039607B681A6878
:103F20003B68D3181800BD4602B080BDB0B586B05E
:103F300000AF786039603B687B6108257B193B6185
:103F40007B69FB607B19180000F048F802007B6871
:103F50009A429B415B42DCB27B191800FEF748FE97
:103F6000002C03D0044B180022F0A0FB7B68180043
:103F7000BD4606B0B0BDC046B00E031080B584B0DB
:103F800000AFF860B9607A60FB687A6811001800C9
:103F900000F044F8BA68FB681100180000F054F80B
:103FA000FB681800BD4604B080BD90B583B000AF7B
:103FB000786039607B681C687B681800FEF7E6FD56
:103FC00002003B681900200000F05AF802007B68EC
:103FD0005A60C046BD4603B090BD000080B588B0B1
:103FE00000AF78600C4B3B617B68FB61FB69BB6198
:103FF000BB697B61084BC046C046FB600C23FA18C6
:104000001023FB181100180000F04BF803001B6888
:104010001800BD4608B080BDFFFFFF7F80B586B0A9
:1040200000AF786039607B687B613B683B617B698E
:10403000FB603B69BB607B68180000F044F87B685C
:104040001800BD4606B080BD80B582B000AF786074
:1040500039603A687B681100180000F046F80200E9
:104060007B681A607B681A687B685A607B681A688C
:104070003B68D2187B689A60C046BD4602B080BDDE
:1040800080B584B000AFF860B9607A60BA68FB6848
:104090001100180000F043F803001800BD4604B0FA
:1040A00080BD80B582B000AF786039603B681A6827
:1040B0007B681B689A4201D23B6800E07B6818006D
:1040C000BD4602B080BD80B582B000AF78607B682D
:1040D00000221A607B6800225A607B6800229A6086
:1040E0007B681800BD4602B080BD80B584B000AFCB
:1040F000786039603B68002B0CD07B68FB603B68C4
:10410000BB60B968FB680022180000F03FF80300AC
:10411000C04600E000231800BD4604B080BD80B555
:1041200084B000AF786039600F23FB1801221A7049
:104130003A687B681100180000F005F803001800C9
:10414000BD4604B080BD80B584B000AF78603960F2
:104150003B68002B15D07B68180000F039F803008D
:10416000FB60FB68180000F03CF87B6801337B6063
:104170003B68591EFA687B68180000F042F803009B
:104180007B607B681800BD4604B080BD80B586B0FA
:1041900000AFF860B9607A60FB687B610B4ABB686E
:1041A0009A429B415B42DBB25A1E9341DBB2002B29
:1041B00001D022F043FABB68180009F099FC030013
:1041C000C0461800BD4606B080BDC046FFFFFF7F59
:1041D00080B582B000AF78607B681800BD4602B041
:1041E00080BD80B582B000AF78607B681900012087
:1041F000FCF7D3F9030000221A70C046BD4602B096
:1042000080BDB0B584B000AFF860B9607A60FC687A
:10421000BB681800FFF79AFD0100C0467A682B1CA6
:10422000200000F005F803001800BD4604B0B0BD42
:1042300080B584B000AFF860B9607A603A0013705E
:10424000BB68002B01D1FB680AE0FA68BB68D11893
:104250007A68FB68180000F007F8FA68BB68D318A2
:104260001800BD4604B080BD80B584B000AFF860D2
:10427000B9607A607A68B968FB68180000F004F8E1
:10428000C046BD4604B080BD80B586B000AFF860C2
:10429000B9607A6017217B187A6812781A70BA6848
:1042A000FB68D31A3B613B69002B06D07B18197859
:1042B0003A69FB68180009F00FFCC046BD4606B01D
:1042C00080BD80B582B000AF386079603A687B68A5
:1042D00010001900BD4602B080BD000080B584B05A
:1042E00000AFF8603A607B603A687B68002B05DAC3
:1042F000074B084A08483F2107F0D6F9F9683A68A1
:104300007B680A604B60C046BD4604B080BDC046B5
:10431000E40E0310000F0310380F0310B0B586B081
:1043200000AF386079603A687B6810001900FFF7C9
:10433000C8FF02000B003A617B617B691C0000230F
:104340001D002300FB600B4B5B6ABB60BA68FB6817
:104350009A420AD3074B9A6A3B699A4203D2BA68D7
:10436000FB689A4201D0012300E000231800BD46FB
:1043700006B0B0BD0040054080B582B000AF7860A7
:1043800005F012FD02000B0079680800FFF7A6FF98
:10439000C0467868BD4602B080BD0000B0B588B0A8
:1043A00000AFF8603A607B603A687B6810001900E3
:1043B000FFF787FF02000B003A617B613B6B1C003B
:1043C00000231D00FA22920000232000290009F09A
:1043D0008FFA02000B00100019003A697B6912186D
:1043E0004B41BA61FB61BA69FB69002B04DA012217
:1043F0005242074BBA61FB61BA69FB69F968080070
:10440000FFF76CFFC046F868BD4608B0B0BDC046B7
:10441000FFFFFF7F80B586B002AF78603960082368
:10442000FB181800FFF7A8FF7868BA68FB683968BE
:104430000091FFF7B3FFC0467868BD4604B080BD69
:10444000B0B584B000AFB860F9603A607B603A689C
:104450007B6810001900FFF734FF04000D00BA68F4
:10446000FB6810001900FFF72CFF02000B00A41AD4
:104470009D4122002B0010001900BD4604B0B0BDC4
:1044800090B585B000AFF860FC683B0000211800D3
:10449000FFF7C0FF3A687B6822606360FB68180022
:1044A000BD4605B090BD90B585B000AFF860B9606D
:1044B000BA68FC683B0011001800FFF7ABFF3A68D0
:1044C0007B6822606360FB681800BD4605B090BD44
:1044D00080B582B000AF78607B681A685B681000B6
:1044E0001900FFF71BFF03001800BD4602B080BD96
:1044F00090B585B000AFF860B960BA68FC683B0061
:1045000011001800FFF786FF3A687B68226063603D
:10451000C046BD4605B090BD90B585B000AFF8600F
:10452000B960BA6813005B019B1A9B009B18DB0003
:104530001A00FC683B0011001800FFF76BFF3A6897
:104540007B6822606360C046BD4605B090BD80B503
:1045500084B000AF78600823FB181800FFF70CFF49
:104560007B681A685B68B868F968FFF769FFFA2228
:104570009200002308F01EFE02000B00130018003A
:10458000BD4604B080BD80B582B000AF38607960B0
:104590003A687B6810001900BD4602B080BD00007B
:1045A00080B584B000AFF8603A607B603A687B68A1
:1045B000002B05DA074B084A08483F2107F074F83A
:1045C000F9683A687B680A604B60C046BD4604B033
:1045D00080BDC046840F0310A00F0310D80F031036
:1045E000B0B586B000AF386079603A687B6810007B
:1045F0001900FFF7C8FF02000B003A617B617B697D
:104600001C0000231D002300FB600B4B5B6ABB609A
:10461000BA68FB689A420AD3074B9A6A3B699A4286
:1046200003D2BA68FB689A4201D0012300E000235C
:104630001800BD4606B0B0BD0040054080B582B050
:1046400000AF786005F0B0FB02000B00796808004D
:10465000FFF7A6FFC0467868BD4602B080BD0000E7
:10466000B0B588B000AFF8603A607B603A687B68AC
:1046700010001900FFF787FF02000B003A617B6111
:104680003B6B1C0000231D00FA2292000023200037
:10469000290009F02DF902000B00100019003A69F9
:1046A0007B6912184B41BA61FB61BA69FB69002B47
:1046B00004DA01225242074BBA61FB61BA69FB6915
:1046C000F9680800FFF76CFFC046F868BD4608B0FF
:1046D000B0BDC046FFFFFF7F80B586B002AF7860F7
:1046E00039600823FB181800FFF7A8FF7868BA683C
:1046F000FB6839680091FFF7B3FFC0467868BD4694
:1047000004B080BD80B500AF21F054FDC046BD4669
:1047100080BD80B500AF21F059FDC046BD4680BDCB
:1047200080B584B000AFF860B9607A60FB681800AB
:1047300000F060FBFB681F4A00219952FA68812350
:104740001B010021D152FB681B4A00219952FB68D2
:104750001A4A002199541BF0E5FA03005A1E9341AE
:10476000DBB2002B05D0164B180009F017FCFB68D4
:104770001BE01BF049F9134B180009F00FFC124B1A
:10478000124A7968B8681BF060FA03005A1E934118
:10479000DBB2002B04D00E4B180009F0FFFB03E046
:1047A0000C4B180009F0FAFBFB681800BD4604B07A
:1047B00080BDC04608080000120800001408000070
:1047C000241003103C10031030750000040040005A
:1047D000541003106810031080B582B000AF7860E9
:1047E00039607B683A681100180000F058FB7B685C
:1047F0001800BD4602B080BD80B582B000AF7860C1
:1048000039603A687B6811001800FFF7E5FF7B68A4
:104810001800BD4602B080BDB0B586B000AFF860EC
:10482000B9607A60FB681A1DBB68110018001AF0A5
:10483000E9FC03005A425341DBB2002B02D01023A3
:104840005B4277E0FB68043318001AF02BFE01008E
:104850007A683A4B180009F0F7FC00200FF0E8F9ED
:10486000020010243B191100180000F008FBFB683F
:104870003A1911001800FFF7BFFF3B19180000F0AC
:10488000C9FAFB68180000F02AFB03001A00012394
:104890005340DBB2002B06D0294B180009F07EFBF9
:1048A00001235B4246E0FB68180000F028FB020091
:1048B000FB68190010000FF0CBF9FB68180000F03E
:1048C0001EFB204B0A2219000FF020FAFB6818008B
:1048D00000F015FB02001C4B190010000FF0E2F96C
:1048E000FB68180000F00BFB0200184B19001000C9
:1048F0000FF0BEF9FB68180000F001FB0200144B3A
:10490000190010000FF0E8F9FFF7FCFEFB68180033
:1049100000F0F5FAFB68191D7B689AB217257C191F
:104920000C4B0EF00DFA03002370FFF7F2FE7B191B
:104930001B785BB21800BD4606B0B0BD7410031002
:1049400090100310CD49001059490010214A001061
:10495000ED4900108549001080B584B000AFF860C3
:10496000B960BB1D1A80BB1D1A88054B11001800C9
:1049700009F06AFC00231800BD4604B080BDC046A3
:10498000A810031080B586B000AFF860B960FB1DB9
:104990001A70FB687B61FB1D1B785BB2002B07D094
:1049A000FB1D00229A56074B1100180009F04CFC21
:1049B0007B69054A0121995400231800BD4606B0C1
:1049C00080BDC046BC1003101408000080B582B042
:1049D00000AF78603960044B180009F0DFFA00235B
:1049E0001800BD4602B080BDD010031080B582B063
:1049F00000AF78600A00FB1C1A70FB1C1B785BB2CE
:104A00000D3307D0FB1C00229A56044B11001800EE
:104A100009F01AFCC046BD4602B080BDE01003108C
:104A2000B0B588B000AFF860B9607A601A00FB1CBE
:104A30001A70FB68BB617B68002B01D10023B7E0D3
:104A400021F0D0FB7B681B89002B00D1ABE0BB6958
:104A5000594A9A5A16203B18802109018A1A1A804D
:104A60007B681B893A1812889A4202D97B681B8995
:104A700002E01623FB181B881E203A181380BA691F
:104A800081231B01D15A1423FB183A1812888A1863
:104A90001A801C23FB1800221A807B681B893A1895
:104AA00012889A420CD2BB69444A9B587A68128990
:104AB00011003A1812888A1A9A18BB693F495A504D
:104AC0001423FB181A8880231B019A4232D9BA6931
:104AD00081231B01D25A1C203B18802109018A1A0C
:104AE0001A803B181B88002B19D0BB690833B969A1
:104AF000812212018A5A99183B181A887868002373
:104B00000DF0ECF9030019001E22BB18BA18128828
:104B1000521A1A80BA6981231B010021D152BB6944
:104B2000254A9A5A1C23FB181B88D31899B2BB69D3
:104B3000214A9952BB690833B969812212018A5A04
:104B400099181C23FB181C881E257B191A88786865
:104B500023000DF0C3F903001900BA6981231B017A
:104B6000D35ACB1899B2BA6981231B01D152BA69C1
:104B700081231B01D35A5B055B0D99B2BA6981236E
:104B80001B01D152BB690C4A9A5A7B191B88D31856
:104B900099B2BB69084A99527B681A89BB681100AF
:104BA00018000EF029F87B6818000CF06BFF00234A
:104BB0001800BD4608B0B0BD080800000C08000091
:104BC00090B58BB000AFF860B9607A603B603A682E
:104BD0001023FB1811001800FFF77EFD1BF066F88C
:104BE000FB68514A9B5A1A007B6893420EDD3A6972
:104BF0007B6910001900FFF7F3FC03001A00012382
:104C00005340DBB2002B01D0012300E00023002B36
:104C1000E4D12623FB1800221A80FB68424A9B5AE3
:104C20001A007B68934200DD13003B623B6A002B55
:104C300000D16FE0FB683D4A995A3B6A9AB21E2048
:104C40003B188A181A803B181A8880231B019A4245
:104C50003AD9FB68354A9A5A26203B188021090127
:104C60008A1A1A803B181B88002B1CD0FB6808335B
:104C7000FA682E49525A991804003B181A88BB68E2
:104C8000180008F02FFF20003B181B883A6AD31A3F
:104C90003B62FB68244A9A5A3B181B88D31A99B284
:104CA000FB68214A99522623FB181B88BA68D01842
:104CB000FB6808333A6A190008F014FF3B6A99B29E
:104CC000FB681A4A99521BE0FB680833FA681749D7
:104CD000525A99183A6ABB68180008F003FFFB683B
:104CE000124A9B5A1A003B6AD318114A134003D543
:104CF000013B104A1343013399B2FB680B4A9952A6
:104D0000FB68094A9A5A3B6A9BB2D31A99B2FB686C
:104D1000054A99522623FB181A883B6AD3181800B3
:104D2000BD460BB090BDC046080800001208000048
:104D3000FF07008000F8FFFFB0B586B000AFF86055
:104D4000B9607A603B607B687B61FFF7DBFCFB68E6
:104D5000180000F0D4F87B689AB213257C19B96862
:104D6000012312F0F7F9030023707B191B785BB263
:104D7000002B0AD07B1900229A56104B1100180004
:104D800009F062FA01235B427B61FB68180000F0C6
:104D9000B6F80300180013F05BF803005A1E9341A5
:104DA000DBB2002B02D002235B427B61FFF7B1FC38
:104DB0007B691800BD4606B0B0BDC046F4100310B4
:104DC00080B582B000AF78607B68180000F0A4F86E
:104DD0007B681800BD4602B080BD80B582B000AFD0
:104DE00078607B681800FFF7EBFF7B681800BD4612
:104DF00002B080BD80B582B000AF78607B680022D1
:104E00001A607B681800FFF7E8FF7B681800BD4652
:104E100002B080BD90B585B000AF78607B681800A7
:104E200000F087F80300FB60FB681B68002B0ED0C6
:104E30007B68180000F08AF80400FB68180000F096
:104E400092F803001B681900200000F095F8FB6839
:104E500000221A607B681800BD4605B090BD80B581
:104E600082B000AF786039607B683A681100180042
:104E700000F092F87B681800BD4602B080BD80B596
:104E800082B000AF786039607B683A681100180022
:104E9000FFF7E5FF7B681800BD4602B080BD80B516
:104EA00082B000AF786039603B68180000F0ADF860
:104EB00002007B681100180000F083F83B681800BE
:104EC00000F0BAF80300180000F0C3F87B6818007F
:104ED00000F0B2F87B681800BD4602B080BD80B516
:104EE00082B000AF78607B68180000F008F803001B
:104EF0005A1E9341DBB21800BD4602B080BD80B59A
:104F000082B000AF78607B68180000F0ABF8030057
:104F10001800BD4602B080BD80B582B000AF786099
:104F20007B68180000F0ACF87B681800BD4602B042
:104F300080BD80B582B000AF78607B68180000F05B
:104F4000B0F803001800BD4602B080BD80B582B045
:104F500000AF78607B68180000F06EF8030018005E
:104F6000BD4602B080BD80B582B000AF78607B687E
:104F70001800BD4602B080BD80B582B000AF786039
:104F800039603B68002B03D0A421180008F0D6FD3F
:104F9000C046BD4602B080BD90B583B000AF78601A
:104FA00039607B681800FFF7B7FF3C687B68180022
:104FB000FFF7BFFF03001C607B681800BD4603B00D
:104FC00090BD90B585B000AF786039607B681800FF
:104FD000FFF7AFFF03001B68FB603C687B681800AD
:104FE000FFF7A7FF03001C60FB68002B09D07B685C
:104FF000180000F021F80200FB6819001000FFF70C
:10500000BBFFC046BD4605B090BD80B584B000AFC3
:1050100078607B681800FFF78CFF03001B68FB605B
:105020007B681800FFF785FF030000221A60FB6809
:105030001800BD4604B080BD80B582B000AF786076
:105040007B68180000F03AF803001800BD4602B073
:1050500080BD80B582B000AF78607B681800BD4627
:1050600002B080BD80B582B000AF78607B68180068
:1050700000F031F803001B681800BD4602B080BD87
:1050800080B582B000AF78607B68180000F030F81F
:105090007B68180000F039F87B681800BD4602B044
:1050A00080BD80B582B000AF78607B68180000F0EA
:1050B00038F803001800BD4602B080BD80B582B04C
:1050C00000AF78607B68180000F038F80300180023
:1050D000BD4602B080BD80B582B000AF78607B680D
:1050E000180000F038F803001800BD4602B080BD7B
:1050F00080B582B000AF78607B68180000F038F8A7
:105100007B681800BD4602B080BD80B582B000AF9C
:1051100078607B6800221A607B681800BD4602B088
:1051200080BD80B582B000AF78607B68180000F069
:1051300028F803001800BD4602B080BD80B582B0DB
:1051400000AF78607B68180000F028F803001800B2
:10515000BD4602B080BD80B582B000AF78607B688C
:10516000180000F028F803001800BD4602B080BD0A
:1051700080B582B000AF78607B681800BD4602B091
:1051800080BD80B582B000AF78607B68180000F009
:105190001FF803001800BD4602B080BD80B582B084
:1051A00000AF78607B68180000F01BF8030018005F
:1051B000BD4602B080BD80B582B000AF78607B682C
:1051C000180000F017F803001800BD4602B080BDBB
:1051D00080B582B000AF78607B681800BD4602B031
:1051E00080BD80B582B000AF78607B681800BD4696
:1051F00002B080BD80B582B000AF78607B681800D7
:10520000BD4602B080BD80B584B000AFF860B96023
:105210007A603B60FB68BA6811001800FBF7B2FACD
:10522000FB687A689A60FB683A68DA60FA68182363
:10523000FB181B781374FB681800BD4604B080BDD2
:1052400090B585B000AF78600E243B1900221A801B
:105250007B68180000F02BF802007B689B68DBB2CB
:105260001900100000F044FA7B681B7C002B0BD067
:105270007B68180000F01BF87B68DB6899B23B196B
:10528000012200F049FA0BE07B68180000F00FF8EB
:105290007B68DB6899B20E23FB18012200F05BFAF1
:1052A0000E23FB181B881800BD4605B090BD80B5C5
:1052B00082B000AF78607B68180000F005F803004A
:1052C0001800BD4602B080BD80B582B000AF7860E6
:1052D0007B68180000F005F803001800BD4602B016
:1052E00080BD80B582B000AF78607B681B68180015
:1052F000BD4602B080BD80B582B000AF3860796035
:105300003A687B6810001900BD4602B080BD0000FD
:1053100080B584B000AFF8603A607B603A687B6823
:10532000002B05DA074B084A08483F2106F0BCF974
:10533000F9683A687B680A604B60C046BD4604B0B5
:1053400080BDC046301103104C11031084110310AE
:10535000B0B586B000AF386079603A687B681000FD
:105360001900FFF7C8FF02000B003A617B617B69FF
:105370001C0000231D002300FB600B4B5B6ABB601D
:10538000BA68FB689A420AD3074B9A6A3B699A4209
:1053900003D2BA68FB689A4201D0012300E00023DF
:1053A0001800BD4606B0B0BD0040054080B582B0D3
:1053B00000AF786004F0F8FC02000B007968080088
:1053C000FFF7A6FFC0467868BD4602B080BD00006A
:1053D00080B588B000AFF8603A607B603A687B685F
:1053E00010001900FFF787FF02000B003A617B6194
:1053F00038697969BA6AFB6A12184B41BA61FB6174
:10540000BA69FB69002B04DA01225242064BBA61E9
:10541000FB61BA69FB69F9680800FFF779FFC046CC
:10542000F868BD4608B080BDFFFFFF7F90B589B02A
:1054300002AFF8603A607B601023FB181800FFF79A
:10544000B5FFFC68386979693A687B680092019316
:1054500002000B002000FFF7BBFFC046F868BD4606
:1054600007B090BD90B585B000AF786039607B68BB
:105470003A6811001800FDF78CF97B6801221A7256
:105480007B68194ADA607B68184A1A617B681800E1
:1054900000F080F902007B685A617B6818331A00BB
:1054A0007B6808330F217C1819001000FEF7FBF809
:1054B000030023707B68183301211800FDF745FDB8
:1054C0007B681833FA22920011001800FDF721FDC5
:1054D0007B68183303211800FDF729FD7B6818004D
:1054E000BD4605B090BDC046F1540010C556001031
:1054F000F0B59DB000AFF8637A633B6312232822B6
:105500009B18DA190B1C13803B6B3B663723282250
:105510009B18DA197B6BDB0F13707B6B002B0DDB99
:105520007B6BBB60DB17FB60FA2292000023B8683C
:10553000F96808F0DDF902000B0001E00022002309
:10554000BA66FB663B6E1800FEF7CEFB0300BB6538
:10555000BB6D002B62D0BA6D13009B009B185B00E3
:1055600020333B6100237B613A697B69D10E58018E
:10557000050028000843050053011C0023002C00EF
:105580003D697E69290032005B1A94411A002300AC
:10559000D10D58027862786A0843786253023B6200
:1055A0003B6A7C6A290032005B1854411A002300D0
:1055B000910E9801F861F8690843F8619101B961A9
:1055C000B869F969801A994103000C00290032007A
:1055D0005B18544125001C003B6E1800FEF7ACFB25
:1055E00003003B60DB177B603A687B682000290082
:1055F00007F0F8FD02000B003A657B657A6DFB6EE3
:105600009A4207D87A6DFB6E9A4207D13A6DBB6E0B
:105610009A4203D93A6D7B6DBA66FB66182328223D
:105620009B18D919BA6EFB6E0800FFF7FFFE002326
:105630007B6621E07B6EFA6BD118122328229B181F
:10564000DB191A887B6ED21A3B6E1800FEF76AFAD5
:105650000300FB647A6EFB6CD3187B66FB6C002B3B
:105660000ADD2823F918BA6EFB6E0800FFF7DEFE8C
:10567000BA6AFB6A3A647B64122328229B18DB19FE
:105680001B887A6E9A4215DA372328229B18DB1979
:105690001B78002B0CD13A6C7B6C10001900FFF7C3
:1056A00057FE03001A0001235340DBB2002B01D048
:1056B000012300E00023002BBCD17B6E1800BD4607
:1056C0001DB0F0BD80B584B000AFF8607A603B607B
:1056D0000A203B180A1C1A803B181A88F9683B6894
:1056E0001800FEF751FA03001800BD4604B080BD53
:1056F00080B582B000AF78600A00FB1C1A707B682E
:1057000018331A00FB1C1B7819001000FDF71DFC54
:10571000C046BD4602B080BDF0B585B000AFF860B0
:10572000080011007B600A257B19021C1A800826DC
:10573000BB190A1C1A80FB68183318007C68BB1957
:105740001A887B1919882300FEF720F80300180037
:10575000BD4605B0F0BDF0B585B000AFF8600800FB
:1057600011007B600A257B19021C1A800826BB19D0
:105770000A1C1A80FB68183318007C68BB191A8849
:105780007B1919882300FEF720F803001800BD4696
:1057900005B0F0BD80B582B000AF78607B681B6853
:1057A0001800BD4602B080BD90B585B000AF7860EE
:1057B0000023FB607B681B7A032B02D10C23FB6068
:1057C00005E07B681B7A042B01D10A23FB607B6810
:1057D000D86819695A6900F0B8FC03000233FA6806
:1057E000D318FB607B68DB7E002B13D07B68586A84
:1057F000996ADA6A00F0A9FC03009C1C7B68186BAC
:10580000596B9A6B00F0A1FC0300E3180233FA68AD
:10581000D318FB607B681B6C002B03D17B689B6CEF
:10582000002B0AD07B68186C596C9A6C00F08DFCC8
:1058300003000233FA68D318FB607B68DB6C002B33
:1058400003D17B685B6D002B0AD07B68D86C196D27
:105850005A6D00F07AFC03000233FA68D318FB603B
:10586000FB681800BD4605B090BD000090B58BB038
:1058700000AFF860B9607A60FB68FB610023BB6130
:1058800000237B6100233B6201235B427B627B68D8
:105890001800FFF789FF03003B623B6A180000F025
:1058A000F5FA0200BB68934203DA02235B427B6293
:1058B000F4E018203B1800221A703B181A780F21C8
:1058C0000A40111C10220A431A703B181A781C2433
:1058D0003B191100180000F067FBFB693A6A1100E0
:1058E000180000F059FA0200FB699B18FB617B6805
:1058F0001B7A042B0BD16C4A3B191100180000F0E5
:1059000097FB3B190421180000F04EFB0BE0674A9F
:105910001C243B191100180000F08AFB3B190321DD
:10592000180000F041FB14243B1900221A707B6818
:105930009B7E1A1C01231340DAB23B1901210A4055
:1059400090181A7802218A43111C021C0A431A700B
:105950007B68DB7E5A1E9341DAB23B1901210A4073
:1059600090001A7804218A43111C021C0A431A7001
:105970003B191B7804221340DBB2002B23D07B6839
:105980003D229B5C1A1C03231340DAB23B1903210E
:105990000A40D0001A7818218A43111C021C0A43BD
:1059A0001A707B683C229B5C1A1C01231340DAB2FC
:1059B0003B1901210A4050011A7820218A43111C09
:1059C000021C0A431A707B681B6C002B03D17B6896
:1059D0009B6C002B06D01423FB181A7880214942B7
:1059E0000A431A707B68DB6C002B03D17B685B6D0C
:1059F000002B05D01423FB181A7840210A431A7093
:105A00001423FB181A781C243B191100180000F00D
:105A1000CBFA7B681B8B1A003B191100180000F0B1
:105A2000D9FA7B683819D9681A695B6900F022FBDA
:105A30007B68DB7E002B0DD07B683819596A9A6A27
:105A4000DB6A00F017FB7B683819196B5A6B9B6B8C
:105A500000F010FB1423FB181B787F229343DBB26A
:105A6000002B07D07B681C22B818196C5A6C9B6CF1
:105A700000F000FB1423FB181B7840221340DBB21C
:105A8000002B07D07B681C22B818D96C1A6D5B6D8F
:105A900000F0F0FAFA69FB68D31A7B627B6A18009F
:105AA000BD460BB090BDC046D0110310D8110310F5
:105AB00090B58BB000AFF860B9607A603B600023AE
:105AC000FB617B68BB6100233B6200237B62002398
:105AD0003B6118243B19180000F051FA03001A002A
